{
  "_format": "hh-sol-artifact-1",
  "contractName": "NFTFactory",
  "sourceName": "contracts/NFTFactory.sol",
  "abi": [
    {
      "inputs": [
        {
          "internalType": "string",
          "name": "_name",
          "type": "string"
        },
        {
          "internalType": "string",
          "name": "_symbol",
          "type": "string"
        },
        {
          "internalType": "string",
          "name": "_baseURI",
          "type": "string"
        }
      ],
      "stateMutability": "nonpayable",
      "type": "constructor"
    },
    {
      "anonymous": false,
      "inputs": [
        {
          "indexed": true,
          "internalType": "address",
          "name": "owner",
          "type": "address"
        },
        {
          "indexed": true,
          "internalType": "address",
          "name": "approved",
          "type": "address"
        },
        {
          "indexed": true,
          "internalType": "uint256",
          "name": "tokenId",
          "type": "uint256"
        }
      ],
      "name": "Approval",
      "type": "event"
    },
    {
      "anonymous": false,
      "inputs": [
        {
          "indexed": true,
          "internalType": "address",
          "name": "owner",
          "type": "address"
        },
        {
          "indexed": true,
          "internalType": "address",
          "name": "operator",
          "type": "address"
        },
        {
          "indexed": false,
          "internalType": "bool",
          "name": "approved",
          "type": "bool"
        }
      ],
      "name": "ApprovalForAll",
      "type": "event"
    },
    {
      "anonymous": false,
      "inputs": [
        {
          "indexed": false,
          "internalType": "address",
          "name": "sender",
          "type": "address"
        },
        {
          "indexed": false,
          "internalType": "string",
          "name": "message",
          "type": "string"
        }
      ],
      "name": "Log",
      "type": "event"
    },
    {
      "anonymous": false,
      "inputs": [
        {
          "indexed": true,
          "internalType": "address",
          "name": "previousOwner",
          "type": "address"
        },
        {
          "indexed": true,
          "internalType": "address",
          "name": "newOwner",
          "type": "address"
        }
      ],
      "name": "OwnershipTransferred",
      "type": "event"
    },
    {
      "anonymous": false,
      "inputs": [
        {
          "indexed": false,
          "internalType": "address",
          "name": "caller",
          "type": "address"
        },
        {
          "indexed": false,
          "internalType": "uint256",
          "name": "amount",
          "type": "uint256"
        },
        {
          "indexed": false,
          "internalType": "string",
          "name": "message",
          "type": "string"
        }
      ],
      "name": "Received",
      "type": "event"
    },
    {
      "anonymous": false,
      "inputs": [
        {
          "indexed": false,
          "internalType": "address",
          "name": "sender",
          "type": "address"
        },
        {
          "indexed": false,
          "internalType": "uint256",
          "name": "amount",
          "type": "uint256"
        }
      ],
      "name": "Refunded",
      "type": "event"
    },
    {
      "anonymous": false,
      "inputs": [
        {
          "indexed": true,
          "internalType": "address",
          "name": "from",
          "type": "address"
        },
        {
          "indexed": true,
          "internalType": "address",
          "name": "to",
          "type": "address"
        },
        {
          "indexed": true,
          "internalType": "uint256",
          "name": "tokenId",
          "type": "uint256"
        }
      ],
      "name": "Transfer",
      "type": "event"
    },
    {
      "inputs": [
        {
          "internalType": "address",
          "name": "to",
          "type": "address"
        },
        {
          "internalType": "uint256",
          "name": "tokenId",
          "type": "uint256"
        }
      ],
      "name": "approve",
      "outputs": [],
      "stateMutability": "nonpayable",
      "type": "function"
    },
    {
      "inputs": [
        {
          "internalType": "address",
          "name": "owner",
          "type": "address"
        }
      ],
      "name": "balanceOf",
      "outputs": [
        {
          "internalType": "uint256",
          "name": "",
          "type": "uint256"
        }
      ],
      "stateMutability": "view",
      "type": "function"
    },
    {
      "inputs": [],
      "name": "baseURI",
      "outputs": [
        {
          "internalType": "string",
          "name": "",
          "type": "string"
        }
      ],
      "stateMutability": "view",
      "type": "function"
    },
    {
      "inputs": [],
      "name": "cost",
      "outputs": [
        {
          "internalType": "uint256",
          "name": "",
          "type": "uint256"
        }
      ],
      "stateMutability": "view",
      "type": "function"
    },
    {
      "inputs": [
        {
          "internalType": "uint256",
          "name": "tokenId",
          "type": "uint256"
        }
      ],
      "name": "getApproved",
      "outputs": [
        {
          "internalType": "address",
          "name": "",
          "type": "address"
        }
      ],
      "stateMutability": "view",
      "type": "function"
    },
    {
      "inputs": [
        {
          "internalType": "address",
          "name": "owner",
          "type": "address"
        },
        {
          "internalType": "address",
          "name": "operator",
          "type": "address"
        }
      ],
      "name": "isApprovedForAll",
      "outputs": [
        {
          "internalType": "bool",
          "name": "",
          "type": "bool"
        }
      ],
      "stateMutability": "view",
      "type": "function"
    },
    {
      "inputs": [
        {
          "internalType": "address",
          "name": "_to",
          "type": "address"
        }
      ],
      "name": "mint",
      "outputs": [],
      "stateMutability": "payable",
      "type": "function"
    },
    {
      "inputs": [],
      "name": "name",
      "outputs": [
        {
          "internalType": "string",
          "name": "",
          "type": "string"
        }
      ],
      "stateMutability": "view",
      "type": "function"
    },
    {
      "inputs": [],
      "name": "owner",
      "outputs": [
        {
          "internalType": "address",
          "name": "",
          "type": "address"
        }
      ],
      "stateMutability": "view",
      "type": "function"
    },
    {
      "inputs": [
        {
          "internalType": "uint256",
          "name": "tokenId",
          "type": "uint256"
        }
      ],
      "name": "ownerOf",
      "outputs": [
        {
          "internalType": "address",
          "name": "",
          "type": "address"
        }
      ],
      "stateMutability": "view",
      "type": "function"
    },
    {
      "inputs": [],
      "name": "renounceOwnership",
      "outputs": [],
      "stateMutability": "nonpayable",
      "type": "function"
    },
    {
      "inputs": [
        {
          "internalType": "address",
          "name": "from",
          "type": "address"
        },
        {
          "internalType": "address",
          "name": "to",
          "type": "address"
        },
        {
          "internalType": "uint256",
          "name": "tokenId",
          "type": "uint256"
        }
      ],
      "name": "safeTransferFrom",
      "outputs": [],
      "stateMutability": "nonpayable",
      "type": "function"
    },
    {
      "inputs": [
        {
          "internalType": "address",
          "name": "from",
          "type": "address"
        },
        {
          "internalType": "address",
          "name": "to",
          "type": "address"
        },
        {
          "internalType": "uint256",
          "name": "tokenId",
          "type": "uint256"
        },
        {
          "internalType": "bytes",
          "name": "_data",
          "type": "bytes"
        }
      ],
      "name": "safeTransferFrom",
      "outputs": [],
      "stateMutability": "nonpayable",
      "type": "function"
    },
    {
      "inputs": [
        {
          "internalType": "address",
          "name": "operator",
          "type": "address"
        },
        {
          "internalType": "bool",
          "name": "approved",
          "type": "bool"
        }
      ],
      "name": "setApprovalForAll",
      "outputs": [],
      "stateMutability": "nonpayable",
      "type": "function"
    },
    {
      "inputs": [
        {
          "internalType": "string",
          "name": "_newBaseURI",
          "type": "string"
        }
      ],
      "name": "setBaseURI",
      "outputs": [],
      "stateMutability": "nonpayable",
      "type": "function"
    },
    {
      "inputs": [
        {
          "internalType": "uint256",
          "name": "_cost",
          "type": "uint256"
        }
      ],
      "name": "setCost",
      "outputs": [],
      "stateMutability": "nonpayable",
      "type": "function"
    },
    {
      "inputs": [
        {
          "internalType": "bytes4",
          "name": "interfaceId",
          "type": "bytes4"
        }
      ],
      "name": "supportsInterface",
      "outputs": [
        {
          "internalType": "bool",
          "name": "",
          "type": "bool"
        }
      ],
      "stateMutability": "view",
      "type": "function"
    },
    {
      "inputs": [],
      "name": "symbol",
      "outputs": [
        {
          "internalType": "string",
          "name": "",
          "type": "string"
        }
      ],
      "stateMutability": "view",
      "type": "function"
    },
    {
      "inputs": [
        {
          "internalType": "uint256",
          "name": "index",
          "type": "uint256"
        }
      ],
      "name": "tokenByIndex",
      "outputs": [
        {
          "internalType": "uint256",
          "name": "",
          "type": "uint256"
        }
      ],
      "stateMutability": "view",
      "type": "function"
    },
    {
      "inputs": [
        {
          "internalType": "address",
          "name": "owner",
          "type": "address"
        },
        {
          "internalType": "uint256",
          "name": "index",
          "type": "uint256"
        }
      ],
      "name": "tokenOfOwnerByIndex",
      "outputs": [
        {
          "internalType": "uint256",
          "name": "",
          "type": "uint256"
        }
      ],
      "stateMutability": "view",
      "type": "function"
    },
    {
      "inputs": [
        {
          "internalType": "uint256",
          "name": "tokenId",
          "type": "uint256"
        }
      ],
      "name": "tokenURI",
      "outputs": [
        {
          "internalType": "string",
          "name": "",
          "type": "string"
        }
      ],
      "stateMutability": "view",
      "type": "function"
    },
    {
      "inputs": [],
      "name": "totalSupply",
      "outputs": [
        {
          "internalType": "uint256",
          "name": "",
          "type": "uint256"
        }
      ],
      "stateMutability": "view",
      "type": "function"
    },
    {
      "inputs": [
        {
          "internalType": "address",
          "name": "from",
          "type": "address"
        },
        {
          "internalType": "address",
          "name": "to",
          "type": "address"
        },
        {
          "internalType": "uint256",
          "name": "tokenId",
          "type": "uint256"
        }
      ],
      "name": "transferFrom",
      "outputs": [],
      "stateMutability": "nonpayable",
      "type": "function"
    },
    {
      "inputs": [
        {
          "internalType": "address",
          "name": "newOwner",
          "type": "address"
        }
      ],
      "name": "transferOwnership",
      "outputs": [],
      "stateMutability": "nonpayable",
      "type": "function"
    },
    {
      "inputs": [],
      "name": "withdraw",
      "outputs": [],
      "stateMutability": "nonpayable",
      "type": "function"
    }
  ],
  "bytecode": "0x6080604052662386f26fc10000600c553480156200001c57600080fd5b506040516200439a3803806200439a8339818101604052810190620000429190620002e3565b828281600090805190602001906200005c929190620001c1565b50806001908051906020019062000075929190620001c1565b505050620000986200008c620000f360201b60201c565b620000fb60201b60201c565b80600b9080519060200190620000b0929190620001c1565b507f0738f4da267a110d810e6e89fc59e46be6de0c37b1d5cd559b267dc3688e74e033604051620000e29190620003bc565b60405180910390a1505050620005cc565b600033905090565b6000600a60009054906101000a900473ffffffffffffffffffffffffffffffffffffffff16905081600a60006101000a81548173ffffffffffffffffffffffffffffffffffffffff021916908373ffffffffffffffffffffffffffffffffffffffff1602179055508173ffffffffffffffffffffffffffffffffffffffff168173ffffffffffffffffffffffffffffffffffffffff167f8be0079c531659141344cd1fd0a4f28419497f9722a3daafe3b4186f6b6457e060405160405180910390a35050565b828054620001cf90620004c8565b90600052602060002090601f016020900481019282620001f357600085556200023f565b82601f106200020e57805160ff19168380011785556200023f565b828001600101855582156200023f579182015b828111156200023e57825182559160200191906001019062000221565b5b5090506200024e919062000252565b5090565b5b808211156200026d57600081600090555060010162000253565b5090565b600062000288620002828462000417565b620003ee565b905082815260208101848484011115620002a157600080fd5b620002ae84828562000492565b509392505050565b600082601f830112620002c857600080fd5b8151620002da84826020860162000271565b91505092915050565b600080600060608486031215620002f957600080fd5b600084015167ffffffffffffffff8111156200031457600080fd5b6200032286828701620002b6565b935050602084015167ffffffffffffffff8111156200034057600080fd5b6200034e86828701620002b6565b925050604084015167ffffffffffffffff8111156200036c57600080fd5b6200037a86828701620002b6565b9150509250925092565b6200038f816200045e565b82525050565b6000620003a46016836200044d565b9150620003b182620005a3565b602082019050919050565b6000604082019050620003d3600083018462000384565b8181036020830152620003e68162000395565b905092915050565b6000620003fa6200040d565b9050620004088282620004fe565b919050565b6000604051905090565b600067ffffffffffffffff82111562000435576200043462000563565b5b620004408262000592565b9050602081019050919050565b600082825260208201905092915050565b60006200046b8262000472565b9050919050565b600073ffffffffffffffffffffffffffffffffffffffff82169050919050565b60005b83811015620004b257808201518184015260208101905062000495565b83811115620004c2576000848401525b50505050565b60006002820490506001821680620004e157607f821691505b60208210811415620004f857620004f762000534565b5b50919050565b620005098262000592565b810181811067ffffffffffffffff821117156200052b576200052a62000563565b5b80604052505050565b7f4e487b7100000000000000000000000000000000000000000000000000000000600052602260045260246000fd5b7f4e487b7100000000000000000000000000000000000000000000000000000000600052604160045260246000fd5b6000601f19601f8301169050919050565b7f636f6e7374727563746f72206861732063616c6c656400000000000000000000600082015250565b613dbe80620005dc6000396000f3fe6080604052600436106101665760003560e01c806355f804b3116100d15780638da5cb5b1161008a578063b88d4fde11610064578063b88d4fde1461051b578063c87b56dd14610544578063e985e9c514610581578063f2fde38b146105be57610166565b80638da5cb5b1461049c57806395d89b41146104c7578063a22cb465146104f257610166565b806355f804b31461039b5780636352211e146103c45780636a627842146104015780636c0360eb1461041d57806370a0823114610448578063715018a61461048557610166565b806323b872dd1161012357806323b872dd1461028f5780632f745c59146102b85780633ccfd60b146102f557806342842e0e1461030c57806344a0d68a146103355780634f6ccce71461035e57610166565b806301ffc9a71461016b57806306fdde03146101a8578063081812fc146101d3578063095ea7b31461021057806313faede61461023957806318160ddd14610264575b600080fd5b34801561017757600080fd5b50610192600480360381019061018d9190612aff565b6105e7565b60405161019f9190613050565b60405180910390f35b3480156101b457600080fd5b506101bd610661565b6040516101ca919061306b565b60405180910390f35b3480156101df57600080fd5b506101fa60048036038101906101f59190612b92565b6106f3565b6040516102079190612fe9565b60405180910390f35b34801561021c57600080fd5b5061023760048036038101906102329190612ac3565b610778565b005b34801561024557600080fd5b5061024e610890565b60405161025b919061334d565b60405180910390f35b34801561027057600080fd5b50610279610896565b604051610286919061334d565b60405180910390f35b34801561029b57600080fd5b506102b660048036038101906102b191906129bd565b6108a3565b005b3480156102c457600080fd5b506102df60048036038101906102da9190612ac3565b610903565b6040516102ec919061334d565b60405180910390f35b34801561030157600080fd5b5061030a6109a8565b005b34801561031857600080fd5b50610333600480360381019061032e91906129bd565b610b1d565b005b34801561034157600080fd5b5061035c60048036038101906103579190612b92565b610b3d565b005b34801561036a57600080fd5b5061038560048036038101906103809190612b92565b610bc3565b604051610392919061334d565b60405180910390f35b3480156103a757600080fd5b506103c260048036038101906103bd9190612b51565b610c5a565b005b3480156103d057600080fd5b506103eb60048036038101906103e69190612b92565b610cf0565b6040516103f89190612fe9565b60405180910390f35b61041b60048036038101906104169190612958565b610da2565b005b34801561042957600080fd5b50610432610f18565b60405161043f919061306b565b60405180910390f35b34801561045457600080fd5b5061046f600480360381019061046a9190612958565b610fa6565b60405161047c919061334d565b60405180910390f35b34801561049157600080fd5b5061049a61105e565b005b3480156104a857600080fd5b506104b16110e6565b6040516104be9190612fe9565b60405180910390f35b3480156104d357600080fd5b506104dc611110565b6040516104e9919061306b565b60405180910390f35b3480156104fe57600080fd5b5061051960048036038101906105149190612a87565b6111a2565b005b34801561052757600080fd5b50610542600480360381019061053d9190612a0c565b6111b8565b005b34801561055057600080fd5b5061056b60048036038101906105669190612b92565b61121a565b604051610578919061306b565b60405180910390f35b34801561058d57600080fd5b506105a860048036038101906105a39190612981565b6112c1565b6040516105b59190613050565b60405180910390f35b3480156105ca57600080fd5b506105e560048036038101906105e09190612958565b611355565b005b60007f780e9d63000000000000000000000000000000000000000000000000000000007bffffffffffffffffffffffffffffffffffffffffffffffffffffffff1916827bffffffffffffffffffffffffffffffffffffffffffffffffffffffff1916148061065a57506106598261144d565b5b9050919050565b606060008054610670906135bb565b80601f016020809104026020016040519081016040528092919081815260200182805461069c906135bb565b80156106e95780601f106106be576101008083540402835291602001916106e9565b820191906000526020600020905b8154815290600101906020018083116106cc57829003601f168201915b5050505050905090565b60006106fe8261152f565b61073d576040517f08c379a00000000000000000000000000000000000000000000000000000000081526004016107349061322d565b60405180910390fd5b6004600083815260200190815260200160002060009054906101000a900473ffffffffffffffffffffffffffffffffffffffff169050919050565b600061078382610cf0565b90508073ffffffffffffffffffffffffffffffffffffffff168373ffffffffffffffffffffffffffffffffffffffff1614156107f4576040517f08c379a00000000000000000000000000000000000000000000000000000000081526004016107eb906132cd565b60405180910390fd5b8073ffffffffffffffffffffffffffffffffffffffff1661081361159b565b73ffffffffffffffffffffffffffffffffffffffff16148061084257506108418161083c61159b565b6112c1565b5b610881576040517f08c379a00000000000000000000000000000000000000000000000000000000081526004016108789061318d565b60405180910390fd5b61088b83836115a3565b505050565b600c5481565b6000600880549050905090565b6108b46108ae61159b565b8261165c565b6108f3576040517f08c379a00000000000000000000000000000000000000000000000000000000081526004016108ea906132ed565b60405180910390fd5b6108fe83838361173a565b505050565b600061090e83610fa6565b821061094f576040517f08c379a00000000000000000000000000000000000000000000000000000000081526004016109469061308d565b60405180910390fd5b600660008473ffffffffffffffffffffffffffffffffffffffff1673ffffffffffffffffffffffffffffffffffffffff168152602001908152602001600020600083815260200190815260200160002054905092915050565b6109b061159b565b73ffffffffffffffffffffffffffffffffffffffff166109ce6110e6565b73ffffffffffffffffffffffffffffffffffffffff1614610a24576040517f08c379a0000000000000000000000000000000000000000000000000000000008152600401610a1b9061326d565b60405180910390fd5b60004711610a67576040517f08c379a0000000000000000000000000000000000000000000000000000000008152600401610a5e9061324d565b60405180910390fd5b6000610a716110e6565b73ffffffffffffffffffffffffffffffffffffffff1647604051610a9490612fd4565b60006040518083038185875af1925050503d8060008114610ad1576040519150601f19603f3d011682016040523d82523d6000602084013e610ad6565b606091505b5050905080610b1a576040517f08c379a0000000000000000000000000000000000000000000000000000000008152600401610b119061330d565b60405180910390fd5b50565b610b38838383604051806020016040528060008152506111b8565b505050565b610b4561159b565b73ffffffffffffffffffffffffffffffffffffffff16610b636110e6565b73ffffffffffffffffffffffffffffffffffffffff1614610bb9576040517f08c379a0000000000000000000000000000000000000000000000000000000008152600401610bb09061326d565b60405180910390fd5b80600c8190555050565b6000610bcd610896565b8210610c0e576040517f08c379a0000000000000000000000000000000000000000000000000000000008152600401610c059061332d565b60405180910390fd5b60088281548110610c48577f4e487b7100000000000000000000000000000000000000000000000000000000600052603260045260246000fd5b90600052602060002001549050919050565b610c6261159b565b73ffffffffffffffffffffffffffffffffffffffff16610c806110e6565b73ffffffffffffffffffffffffffffffffffffffff1614610cd6576040517f08c379a0000000000000000000000000000000000000000000000000000000008152600401610ccd9061326d565b60405180910390fd5b80600b9080519060200190610cec92919061277c565b5050565b6000806002600084815260200190815260200160002060009054906101000a900473ffffffffffffffffffffffffffffffffffffffff169050600073ffffffffffffffffffffffffffffffffffffffff168173ffffffffffffffffffffffffffffffffffffffff161415610d99576040517f08c379a0000000000000000000000000000000000000000000000000000000008152600401610d90906131ed565b60405180910390fd5b80915050919050565b600a600d60003373ffffffffffffffffffffffffffffffffffffffff1673ffffffffffffffffffffffffffffffffffffffff16815260200190815260200160002060009054906101000a900460ff1660ff161015610e425760003414610e3d576040517f08c379a0000000000000000000000000000000000000000000000000000000008152600401610e34906131ad565b60405180910390fd5b610e88565b600c54341015610e87576040517f08c379a0000000000000000000000000000000000000000000000000000000008152600401610e7e906132ad565b60405180910390fd5b5b600d60003373ffffffffffffffffffffffffffffffffffffffff1673ffffffffffffffffffffffffffffffffffffffff168152602001908152602001600020600081819054906101000a900460ff16610ee090613667565b91906101000a81548160ff021916908360ff160217905550610f15816001610f06610896565b610f10919061343d565b6119a1565b50565b600b8054610f25906135bb565b80601f0160208091040260200160405190810160405280929190818152602001828054610f51906135bb565b8015610f9e5780601f10610f7357610100808354040283529160200191610f9e565b820191906000526020600020905b815481529060010190602001808311610f8157829003601f168201915b505050505081565b60008073ffffffffffffffffffffffffffffffffffffffff168273ffffffffffffffffffffffffffffffffffffffff161415611017576040517f08c379a000000000000000000000000000000000000000000000000000000000815260040161100e906131cd565b60405180910390fd5b600360008373ffffffffffffffffffffffffffffffffffffffff1673ffffffffffffffffffffffffffffffffffffffff168152602001908152602001600020549050919050565b61106661159b565b73ffffffffffffffffffffffffffffffffffffffff166110846110e6565b73ffffffffffffffffffffffffffffffffffffffff16146110da576040517f08c379a00000000000000000000000000000000000000000000000000000000081526004016110d19061326d565b60405180910390fd5b6110e460006119bf565b565b6000600a60009054906101000a900473ffffffffffffffffffffffffffffffffffffffff16905090565b60606001805461111f906135bb565b80601f016020809104026020016040519081016040528092919081815260200182805461114b906135bb565b80156111985780601f1061116d57610100808354040283529160200191611198565b820191906000526020600020905b81548152906001019060200180831161117b57829003601f168201915b5050505050905090565b6111b46111ad61159b565b8383611a85565b5050565b6111c96111c361159b565b8361165c565b611208576040517f08c379a00000000000000000000000000000000000000000000000000000000081526004016111ff906132ed565b60405180910390fd5b61121484848484611bf2565b50505050565b60606112258261152f565b611264576040517f08c379a000000000000000000000000000000000000000000000000000000000815260040161125b9061328d565b60405180910390fd5b600061126e611c4e565b9050600081511161128e57604051806020016040528060008152506112b9565b8061129884611ce0565b6040516020016112a9929190612fb0565b6040516020818303038152906040525b915050919050565b6000600560008473ffffffffffffffffffffffffffffffffffffffff1673ffffffffffffffffffffffffffffffffffffffff16815260200190815260200160002060008373ffffffffffffffffffffffffffffffffffffffff1673ffffffffffffffffffffffffffffffffffffffff16815260200190815260200160002060009054906101000a900460ff16905092915050565b61135d61159b565b73ffffffffffffffffffffffffffffffffffffffff1661137b6110e6565b73ffffffffffffffffffffffffffffffffffffffff16146113d1576040517f08c379a00000000000000000000000000000000000000000000000000000000081526004016113c89061326d565b60405180910390fd5b600073ffffffffffffffffffffffffffffffffffffffff168173ffffffffffffffffffffffffffffffffffffffff161415611441576040517f08c379a0000000000000000000000000000000000000000000000000000000008152600401611438906130cd565b60405180910390fd5b61144a816119bf565b50565b60007f80ac58cd000000000000000000000000000000000000000000000000000000007bffffffffffffffffffffffffffffffffffffffffffffffffffffffff1916827bffffffffffffffffffffffffffffffffffffffffffffffffffffffff1916148061151857507f5b5e139f000000000000000000000000000000000000000000000000000000007bffffffffffffffffffffffffffffffffffffffffffffffffffffffff1916827bffffffffffffffffffffffffffffffffffffffffffffffffffffffff1916145b80611528575061152782611e8d565b5b9050919050565b60008073ffffffffffffffffffffffffffffffffffffffff166002600084815260200190815260200160002060009054906101000a900473ffffffffffffffffffffffffffffffffffffffff1673ffffffffffffffffffffffffffffffffffffffff1614159050919050565b600033905090565b816004600083815260200190815260200160002060006101000a81548173ffffffffffffffffffffffffffffffffffffffff021916908373ffffffffffffffffffffffffffffffffffffffff160217905550808273ffffffffffffffffffffffffffffffffffffffff1661161683610cf0565b73ffffffffffffffffffffffffffffffffffffffff167f8c5be1e5ebec7d5bd14f71427d1e84f3dd0314c0f7b2291e5b200ac8c7c3b92560405160405180910390a45050565b60006116678261152f565b6116a6576040517f08c379a000000000000000000000000000000000000000000000000000000000815260040161169d9061316d565b60405180910390fd5b60006116b183610cf0565b90508073ffffffffffffffffffffffffffffffffffffffff168473ffffffffffffffffffffffffffffffffffffffff1614806116f357506116f281856112c1565b5b8061173157508373ffffffffffffffffffffffffffffffffffffffff16611719846106f3565b73ffffffffffffffffffffffffffffffffffffffff16145b91505092915050565b8273ffffffffffffffffffffffffffffffffffffffff1661175a82610cf0565b73ffffffffffffffffffffffffffffffffffffffff16146117b0576040517f08c379a00000000000000000000000000000000000000000000000000000000081526004016117a7906130ed565b60405180910390fd5b600073ffffffffffffffffffffffffffffffffffffffff168273ffffffffffffffffffffffffffffffffffffffff161415611820576040517f08c379a00000000000000000000000000000000000000000000000000000000081526004016118179061312d565b60405180910390fd5b61182b838383611ef7565b6118366000826115a3565b6001600360008573ffffffffffffffffffffffffffffffffffffffff1673ffffffffffffffffffffffffffffffffffffffff168152602001908152602001600020600082825461188691906134c4565b925050819055506001600360008473ffffffffffffffffffffffffffffffffffffffff1673ffffffffffffffffffffffffffffffffffffffff16815260200190815260200160002060008282546118dd919061343d565b92505081905550816002600083815260200190815260200160002060006101000a81548173ffffffffffffffffffffffffffffffffffffffff021916908373ffffffffffffffffffffffffffffffffffffffff160217905550808273ffffffffffffffffffffffffffffffffffffffff168473ffffffffffffffffffffffffffffffffffffffff167fddf252ad1be2c89b69c2b068fc378daa952ba7f163c4a11628f55a4df523b3ef60405160405180910390a461199c83838361200b565b505050565b6119bb828260405180602001604052806000815250612010565b5050565b6000600a60009054906101000a900473ffffffffffffffffffffffffffffffffffffffff16905081600a60006101000a81548173ffffffffffffffffffffffffffffffffffffffff021916908373ffffffffffffffffffffffffffffffffffffffff1602179055508173ffffffffffffffffffffffffffffffffffffffff168173ffffffffffffffffffffffffffffffffffffffff167f8be0079c531659141344cd1fd0a4f28419497f9722a3daafe3b4186f6b6457e060405160405180910390a35050565b8173ffffffffffffffffffffffffffffffffffffffff168373ffffffffffffffffffffffffffffffffffffffff161415611af4576040517f08c379a0000000000000000000000000000000000000000000000000000000008152600401611aeb9061314d565b60405180910390fd5b80600560008573ffffffffffffffffffffffffffffffffffffffff1673ffffffffffffffffffffffffffffffffffffffff16815260200190815260200160002060008473ffffffffffffffffffffffffffffffffffffffff1673ffffffffffffffffffffffffffffffffffffffff16815260200190815260200160002060006101000a81548160ff0219169083151502179055508173ffffffffffffffffffffffffffffffffffffffff168373ffffffffffffffffffffffffffffffffffffffff167f17307eab39ab6107e8899845ad3d59bd9653f200f220920489ca2b5937696c3183604051611be59190613050565b60405180910390a3505050565b611bfd84848461173a565b611c098484848461206b565b611c48576040517f08c379a0000000000000000000000000000000000000000000000000000000008152600401611c3f906130ad565b60405180910390fd5b50505050565b6060600b8054611c5d906135bb565b80601f0160208091040260200160405190810160405280929190818152602001828054611c89906135bb565b8015611cd65780601f10611cab57610100808354040283529160200191611cd6565b820191906000526020600020905b815481529060010190602001808311611cb957829003601f168201915b5050505050905090565b60606000821415611d28576040518060400160405280600181526020017f30000000000000000000000000000000000000000000000000000000000000008152509050611e88565b600082905060005b60008214611d5a578080611d439061361e565b915050600a82611d539190613493565b9150611d30565b60008167ffffffffffffffff811115611d9c577f4e487b7100000000000000000000000000000000000000000000000000000000600052604160045260246000fd5b6040519080825280601f01601f191660200182016040528015611dce5781602001600182028036833780820191505090505b5090505b60008514611e8157600182611de791906134c4565b9150600a85611df69190613691565b6030611e02919061343d565b60f81b818381518110611e3e577f4e487b7100000000000000000000000000000000000000000000000000000000600052603260045260246000fd5b60200101907effffffffffffffffffffffffffffffffffffffffffffffffffffffffffffff1916908160001a905350600a85611e7a9190613493565b9450611dd2565b8093505050505b919050565b60007f01ffc9a7000000000000000000000000000000000000000000000000000000007bffffffffffffffffffffffffffffffffffffffffffffffffffffffff1916827bffffffffffffffffffffffffffffffffffffffffffffffffffffffff1916149050919050565b611f02838383612202565b600073ffffffffffffffffffffffffffffffffffffffff168373ffffffffffffffffffffffffffffffffffffffff161415611f4557611f4081612207565b611f84565b8173ffffffffffffffffffffffffffffffffffffffff168373ffffffffffffffffffffffffffffffffffffffff1614611f8357611f828382612250565b5b5b600073ffffffffffffffffffffffffffffffffffffffff168273ffffffffffffffffffffffffffffffffffffffff161415611fc757611fc2816123bd565b612006565b8273ffffffffffffffffffffffffffffffffffffffff168273ffffffffffffffffffffffffffffffffffffffff1614612005576120048282612500565b5b5b505050565b505050565b61201a838361257f565b612027600084848461206b565b612066576040517f08c379a000000000000000000000000000000000000000000000000000000000815260040161205d906130ad565b60405180910390fd5b505050565b600061208c8473ffffffffffffffffffffffffffffffffffffffff16612759565b156121f5578373ffffffffffffffffffffffffffffffffffffffff1663150b7a026120b561159b565b8786866040518563ffffffff1660e01b81526004016120d79493929190613004565b602060405180830381600087803b1580156120f157600080fd5b505af192505050801561212257506040513d601f19601f8201168201806040525081019061211f9190612b28565b60015b6121a5573d8060008114612152576040519150601f19603f3d011682016040523d82523d6000602084013e612157565b606091505b5060008151141561219d576040517f08c379a0000000000000000000000000000000000000000000000000000000008152600401612194906130ad565b60405180910390fd5b805181602001fd5b63150b7a0260e01b7bffffffffffffffffffffffffffffffffffffffffffffffffffffffff1916817bffffffffffffffffffffffffffffffffffffffffffffffffffffffff1916149150506121fa565b600190505b949350505050565b505050565b6008805490506009600083815260200190815260200160002081905550600881908060018154018082558091505060019003906000526020600020016000909190919091505550565b6000600161225d84610fa6565b61226791906134c4565b905060006007600084815260200190815260200160002054905081811461234c576000600660008673ffffffffffffffffffffffffffffffffffffffff1673ffffffffffffffffffffffffffffffffffffffff168152602001908152602001600020600084815260200190815260200160002054905080600660008773ffffffffffffffffffffffffffffffffffffffff1673ffffffffffffffffffffffffffffffffffffffff168152602001908152602001600020600084815260200190815260200160002081905550816007600083815260200190815260200160002081905550505b6007600084815260200190815260200160002060009055600660008573ffffffffffffffffffffffffffffffffffffffff1673ffffffffffffffffffffffffffffffffffffffff16815260200190815260200160002060008381526020019081526020016000206000905550505050565b600060016008805490506123d191906134c4565b9050600060096000848152602001908152602001600020549050600060088381548110612427577f4e487b7100000000000000000000000000000000000000000000000000000000600052603260045260246000fd5b90600052602060002001549050806008838154811061246f577f4e487b7100000000000000000000000000000000000000000000000000000000600052603260045260246000fd5b9060005260206000200181905550816009600083815260200190815260200160002081905550600960008581526020019081526020016000206000905560088054806124e4577f4e487b7100000000000000000000000000000000000000000000000000000000600052603160045260246000fd5b6001900381819060005260206000200160009055905550505050565b600061250b83610fa6565b905081600660008573ffffffffffffffffffffffffffffffffffffffff1673ffffffffffffffffffffffffffffffffffffffff168152602001908152602001600020600083815260200190815260200160002081905550806007600084815260200190815260200160002081905550505050565b600073ffffffffffffffffffffffffffffffffffffffff168273ffffffffffffffffffffffffffffffffffffffff1614156125ef576040517f08c379a00000000000000000000000000000000000000000000000000000000081526004016125e69061320d565b60405180910390fd5b6125f88161152f565b15612638576040517f08c379a000000000000000000000000000000000000000000000000000000000815260040161262f9061310d565b60405180910390fd5b61264460008383611ef7565b6001600360008473ffffffffffffffffffffffffffffffffffffffff1673ffffffffffffffffffffffffffffffffffffffff1681526020019081526020016000206000828254612694919061343d565b92505081905550816002600083815260200190815260200160002060006101000a81548173ffffffffffffffffffffffffffffffffffffffff021916908373ffffffffffffffffffffffffffffffffffffffff160217905550808273ffffffffffffffffffffffffffffffffffffffff16600073ffffffffffffffffffffffffffffffffffffffff167fddf252ad1be2c89b69c2b068fc378daa952ba7f163c4a11628f55a4df523b3ef60405160405180910390a46127556000838361200b565b5050565b6000808273ffffffffffffffffffffffffffffffffffffffff163b119050919050565b828054612788906135bb565b90600052602060002090601f0160209004810192826127aa57600085556127f1565b82601f106127c357805160ff19168380011785556127f1565b828001600101855582156127f1579182015b828111156127f05782518255916020019190600101906127d5565b5b5090506127fe9190612802565b5090565b5b8082111561281b576000816000905550600101612803565b5090565b600061283261282d8461338d565b613368565b90508281526020810184848401111561284a57600080fd5b612855848285613579565b509392505050565b600061287061286b846133be565b613368565b90508281526020810184848401111561288857600080fd5b612893848285613579565b509392505050565b6000813590506128aa81613d2c565b92915050565b6000813590506128bf81613d43565b92915050565b6000813590506128d481613d5a565b92915050565b6000815190506128e981613d5a565b92915050565b600082601f83011261290057600080fd5b813561291084826020860161281f565b91505092915050565b600082601f83011261292a57600080fd5b813561293a84826020860161285d565b91505092915050565b60008135905061295281613d71565b92915050565b60006020828403121561296a57600080fd5b60006129788482850161289b565b91505092915050565b6000806040838503121561299457600080fd5b60006129a28582860161289b565b92505060206129b38582860161289b565b9150509250929050565b6000806000606084860312156129d257600080fd5b60006129e08682870161289b565b93505060206129f18682870161289b565b9250506040612a0286828701612943565b9150509250925092565b60008060008060808587031215612a2257600080fd5b6000612a308782880161289b565b9450506020612a418782880161289b565b9350506040612a5287828801612943565b925050606085013567ffffffffffffffff811115612a6f57600080fd5b612a7b878288016128ef565b91505092959194509250565b60008060408385031215612a9a57600080fd5b6000612aa88582860161289b565b9250506020612ab9858286016128b0565b9150509250929050565b60008060408385031215612ad657600080fd5b6000612ae48582860161289b565b9250506020612af585828601612943565b9150509250929050565b600060208284031215612b1157600080fd5b6000612b1f848285016128c5565b91505092915050565b600060208284031215612b3a57600080fd5b6000612b48848285016128da565b91505092915050565b600060208284031215612b6357600080fd5b600082013567ffffffffffffffff811115612b7d57600080fd5b612b8984828501612919565b91505092915050565b600060208284031215612ba457600080fd5b6000612bb284828501612943565b91505092915050565b612bc4816134f8565b82525050565b612bd38161350a565b82525050565b6000612be4826133ef565b612bee8185613405565b9350612bfe818560208601613588565b612c078161377e565b840191505092915050565b6000612c1d826133fa565b612c278185613421565b9350612c37818560208601613588565b612c408161377e565b840191505092915050565b6000612c56826133fa565b612c608185613432565b9350612c70818560208601613588565b80840191505092915050565b6000612c89602b83613421565b9150612c948261378f565b604082019050919050565b6000612cac603283613421565b9150612cb7826137de565b604082019050919050565b6000612ccf602683613421565b9150612cda8261382d565b604082019050919050565b6000612cf2602583613421565b9150612cfd8261387c565b604082019050919050565b6000612d15601c83613421565b9150612d20826138cb565b602082019050919050565b6000612d38602483613421565b9150612d43826138f4565b604082019050919050565b6000612d5b601983613421565b9150612d6682613943565b602082019050919050565b6000612d7e602c83613421565b9150612d898261396c565b604082019050919050565b6000612da1603883613421565b9150612dac826139bb565b604082019050919050565b6000612dc4601383613421565b9150612dcf82613a0a565b602082019050919050565b6000612de7602a83613421565b9150612df282613a33565b604082019050919050565b6000612e0a602983613421565b9150612e1582613a82565b604082019050919050565b6000612e2d602083613421565b9150612e3882613ad1565b602082019050919050565b6000612e50602c83613421565b9150612e5b82613afa565b604082019050919050565b6000612e73601b83613421565b9150612e7e82613b49565b602082019050919050565b6000612e96602083613421565b9150612ea182613b72565b602082019050919050565b6000612eb9602f83613421565b9150612ec482613b9b565b604082019050919050565b6000612edc601083613421565b9150612ee782613bea565b602082019050919050565b6000612eff602183613421565b9150612f0a82613c13565b604082019050919050565b6000612f22600083613416565b9150612f2d82613c62565b600082019050919050565b6000612f45603183613421565b9150612f5082613c65565b604082019050919050565b6000612f68601783613421565b9150612f7382613cb4565b602082019050919050565b6000612f8b602c83613421565b9150612f9682613cdd565b604082019050919050565b612faa81613562565b82525050565b6000612fbc8285612c4b565b9150612fc88284612c4b565b91508190509392505050565b6000612fdf82612f15565b9150819050919050565b6000602082019050612ffe6000830184612bbb565b92915050565b60006080820190506130196000830187612bbb565b6130266020830186612bbb565b6130336040830185612fa1565b81810360608301526130458184612bd9565b905095945050505050565b60006020820190506130656000830184612bca565b92915050565b600060208201905081810360008301526130858184612c12565b905092915050565b600060208201905081810360008301526130a681612c7c565b9050919050565b600060208201905081810360008301526130c681612c9f565b9050919050565b600060208201905081810360008301526130e681612cc2565b9050919050565b6000602082019050818103600083015261310681612ce5565b9050919050565b6000602082019050818103600083015261312681612d08565b9050919050565b6000602082019050818103600083015261314681612d2b565b9050919050565b6000602082019050818103600083015261316681612d4e565b9050919050565b6000602082019050818103600083015261318681612d71565b9050919050565b600060208201905081810360008301526131a681612d94565b9050919050565b600060208201905081810360008301526131c681612db7565b9050919050565b600060208201905081810360008301526131e681612dda565b9050919050565b6000602082019050818103600083015261320681612dfd565b9050919050565b6000602082019050818103600083015261322681612e20565b9050919050565b6000602082019050818103600083015261324681612e43565b9050919050565b6000602082019050818103600083015261326681612e66565b9050919050565b6000602082019050818103600083015261328681612e89565b9050919050565b600060208201905081810360008301526132a681612eac565b9050919050565b600060208201905081810360008301526132c681612ecf565b9050919050565b600060208201905081810360008301526132e681612ef2565b9050919050565b6000602082019050818103600083015261330681612f38565b9050919050565b6000602082019050818103600083015261332681612f5b565b9050919050565b6000602082019050818103600083015261334681612f7e565b9050919050565b60006020820190506133626000830184612fa1565b92915050565b6000613372613383565b905061337e82826135ed565b919050565b6000604051905090565b600067ffffffffffffffff8211156133a8576133a761374f565b5b6133b18261377e565b9050602081019050919050565b600067ffffffffffffffff8211156133d9576133d861374f565b5b6133e28261377e565b9050602081019050919050565b600081519050919050565b600081519050919050565b600082825260208201905092915050565b600081905092915050565b600082825260208201905092915050565b600081905092915050565b600061344882613562565b915061345383613562565b9250827fffffffffffffffffffffffffffffffffffffffffffffffffffffffffffffffff03821115613488576134876136c2565b5b828201905092915050565b600061349e82613562565b91506134a983613562565b9250826134b9576134b86136f1565b5b828204905092915050565b60006134cf82613562565b91506134da83613562565b9250828210156134ed576134ec6136c2565b5b828203905092915050565b600061350382613542565b9050919050565b60008115159050919050565b60007fffffffff0000000000000000000000000000000000000000000000000000000082169050919050565b600073ffffffffffffffffffffffffffffffffffffffff82169050919050565b6000819050919050565b600060ff82169050919050565b82818337600083830152505050565b60005b838110156135a657808201518184015260208101905061358b565b838111156135b5576000848401525b50505050565b600060028204905060018216806135d357607f821691505b602082108114156135e7576135e6613720565b5b50919050565b6135f68261377e565b810181811067ffffffffffffffff821117156136155761361461374f565b5b80604052505050565b600061362982613562565b91507fffffffffffffffffffffffffffffffffffffffffffffffffffffffffffffffff82141561365c5761365b6136c2565b5b600182019050919050565b60006136728261356c565b915060ff821415613686576136856136c2565b5b600182019050919050565b600061369c82613562565b91506136a783613562565b9250826136b7576136b66136f1565b5b828206905092915050565b7f4e487b7100000000000000000000000000000000000000000000000000000000600052601160045260246000fd5b7f4e487b7100000000000000000000000000000000000000000000000000000000600052601260045260246000fd5b7f4e487b7100000000000000000000000000000000000000000000000000000000600052602260045260246000fd5b7f4e487b7100000000000000000000000000000000000000000000000000000000600052604160045260246000fd5b6000601f19601f8301169050919050565b7f455243373231456e756d657261626c653a206f776e657220696e646578206f7560008201527f74206f6620626f756e6473000000000000000000000000000000000000000000602082015250565b7f4552433732313a207472616e7366657220746f206e6f6e20455243373231526560008201527f63656976657220696d706c656d656e7465720000000000000000000000000000602082015250565b7f4f776e61626c653a206e6577206f776e657220697320746865207a65726f206160008201527f6464726573730000000000000000000000000000000000000000000000000000602082015250565b7f4552433732313a207472616e736665722066726f6d20696e636f72726563742060008201527f6f776e6572000000000000000000000000000000000000000000000000000000602082015250565b7f4552433732313a20746f6b656e20616c7265616479206d696e74656400000000600082015250565b7f4552433732313a207472616e7366657220746f20746865207a65726f2061646460008201527f7265737300000000000000000000000000000000000000000000000000000000602082015250565b7f4552433732313a20617070726f766520746f2063616c6c657200000000000000600082015250565b7f4552433732313a206f70657261746f7220717565727920666f72206e6f6e657860008201527f697374656e7420746f6b656e0000000000000000000000000000000000000000602082015250565b7f4552433732313a20617070726f76652063616c6c6572206973206e6f74206f7760008201527f6e6572206e6f7220617070726f76656420666f7220616c6c0000000000000000602082015250565b7f62616c616e63652073686f756c64206265203000000000000000000000000000600082015250565b7f4552433732313a2062616c616e636520717565727920666f7220746865207a6560008201527f726f206164647265737300000000000000000000000000000000000000000000602082015250565b7f4552433732313a206f776e657220717565727920666f72206e6f6e657869737460008201527f656e7420746f6b656e0000000000000000000000000000000000000000000000602082015250565b7f4552433732313a206d696e7420746f20746865207a65726f2061646472657373600082015250565b7f4552433732313a20617070726f76656420717565727920666f72206e6f6e657860008201527f697374656e7420746f6b656e0000000000000000000000000000000000000000602082015250565b7f62616c616e63652073686f756c64206265206772656174657220300000000000600082015250565b7f4f776e61626c653a2063616c6c6572206973206e6f7420746865206f776e6572600082015250565b7f4552433732314d657461646174613a2055524920717565727920666f72206e6f60008201527f6e6578697374656e7420746f6b656e0000000000000000000000000000000000602082015250565b7f6e6f7420656e6f756768206d6f6e657900000000000000000000000000000000600082015250565b7f4552433732313a20617070726f76616c20746f2063757272656e74206f776e6560008201527f7200000000000000000000000000000000000000000000000000000000000000602082015250565b50565b7f4552433732313a207472616e736665722063616c6c6572206973206e6f74206f60008201527f776e6572206e6f7220617070726f766564000000000000000000000000000000602082015250565b7f4661696c65642077697468647261772070726f63657373000000000000000000600082015250565b7f455243373231456e756d657261626c653a20676c6f62616c20696e646578206f60008201527f7574206f6620626f756e64730000000000000000000000000000000000000000602082015250565b613d35816134f8565b8114613d4057600080fd5b50565b613d4c8161350a565b8114613d5757600080fd5b50565b613d6381613516565b8114613d6e57600080fd5b50565b613d7a81613562565b8114613d8557600080fd5b5056fea26469706673582212204eef8ba08b336e04b5fe3066f43c1b10c51a9acd46b0552571a50d3592e7404d64736f6c63430008040033",
  "linkReferences": {},
  "deployedLinkReferences": {}
}